:100000000AC119C118C117C116C115C114C1C5C291
:1000100030C311C110C10FC10EC127C40CC10BC127
:100020000AC109C14DC307C106C1F1C1E7C162C11F
:1000300061C160C15FC15EC15DC15CC15BC15AC1CC
:1000400059C158C157C156C155C16CC1D3C1CEC1E8
:10005000C9C1C4C1BFC1BAC1B5C1B0C14BC14AC198
:1000600049C1A2C19FC191C145C144C143C142C15F
:1000700041C140C13FC13EC13DC182C13BC141C23E
:1000800034C221C237C136C135C134C133C132C1D6
:1000900031C130C12FC12EC12DC12CC12BC12AC1EC
:1000A00029C128C127C126C125C124C123C122C11C
:1000B00021C120C11FC11EC11DC11CC11BC11AC14C
:1000C00019C118C117C116C115C114C113C112C17C
:1000D00011C110C10FC10EC10DC10CC10BC10AC1AC
:1000E00009C108C107C106C105C104C103C102C1DC
:1000F00001C100C1FFC0FEC0FDC0FCC0FBC0FAC012
:10010000F9C0F8C0F7C0F6C0F5C00CC10BC1F2C011
:10011000F1C0F0C0EFC0EEC0EDC0ECC0EBC0EAC073
:10012000E9C0E8C0E7C0E6C0E5C0E4C0E3C0E2C0A3
:10013000E1C0E0C0DFC0DEC0DDC0DCC0DBC0DAC0D3
:10014000D9C0D8C0D7C0D6C0D5C0D4C0D3C0D2C003
:10015000D1C0D0C0CFC0CEC0CDC0CCC0CBC0CAC033
:10016000C9C0C8C0C7C0C6C067C1C4C0C3C0C2C0C0
:10017000C1C0C0C0BFC0BEC0BDC0BCC0BBC0BAC093
:10018000B9C0B8C0B7C0B6C0B5C050C149C187C1B9
:1001900080C179C172C189C1EDC0ACC0ABC0AAC079
:1001A000A9C0A8C0A7C0A6C0A5C0D6C0C0C0A2C0D4
:1001B000A1C0A0C09FC09EC09DC09CC09BC09AC053
:1001C00099C098C097C096C095C04BC174C1C6C1B4
:1001D000C3C1C0C1BDC1BAC1B7C1B4C1B1C1C0C141
:1001E000D2C1CFC1CCC1C9C1C6C1C3C1C0C1BDC1CB
:1001F000CCC11CC31FC31CC309C310C3F5C210C3A9
:1002000011C312C330C32DC32AC306C324C3C0C243
:1002100024C31FC319C311241FBECFE5D1E0DEBF25
:10022000CDBF20E0A0E6B0E001C01D92AB3AB2071E
:10023000E1F702D0CDC3E4CE88EF90E0AFD3809356
:10024000A90081EF90E0AAD38093A70082EF90E00D
:10025000A5D38093730080EF90E0A0D383BB8FEE93
:1002600090E09CD312B889B98FEF87BB92E691BB1F
:10027000919A899A1BB890E99AB99EE393B9989993
:1002800086C188B318BA82B38F7982BB1092750089
:10029000109272001092740014BA1092AA00109278
:1002A000960015BA1092A80084E481BD8BE086BF49
:1002B00082E080BF83E083BF81E089BF7894AA2475
:1002C000A39412E087E0B82EC5E096E0F92E20E86E
:1002D000C22ED3E033ECD32E44E0E42E0BE0A39BFC
:1002E000FECF2091AA00822F90E0FC017097E23DA2
:1002F000F105D0F0A5BA10939800209397001092C2
:10030000AA0010929600E5B3F0E0E956FF4F808115
:100310008CB9539A85B3882309F402C185B38150FF
:1003200085BB559AA398DBCFEB5EFF4F0994809174
:1003300076008A3008F0F7C090E0FC013197E93090
:10034000F10508F40FC1C798A5BAA0929800809152
:10035000AA0080939700D3CF809176008A3008F06E
:10036000E2C090E0FC013197E930F10508F4E5C006
:10037000C79AEACF6091760082EF90E017D3E4CF7E
:1003800069B18FEE90E012D3DFCF84B3D5BBC093B9
:100390009A009091AA0090939900A092980080935F
:1003A0009700ADCF83B3F2CF15BBC0939900A09255
:1003B0009800E091A800E111A8C0FFCF88EF90E07D
:1003C000EDD2E4CF86EF90E0E9D2E0CF87EF90E086
:1003D000E5D2DCCF82EF90E0E1D2D8CF81EF90E0A0
:1003E000DDD2D4CF85EF90E0D9D2D0CF84EF90E0AA
:1003F000D5D2CCCF83EF90E0D1D2C8CF9C98A5BA0C
:10040000A09298008091AA008093970078CF9C9A40
:10041000A5BAA09298008091AA00809397006FCF10
:100420006091760084EF90E0C1D28ECF609176002B
:1004300083EF90E0BBD288CF80919600833009F0A3
:1004400059CF809176008F3F09F054CF809177008B
:10045000811150CF809178008A3A09F04BCFA49A4D
:1004600073CF12B88091760089B9A5BAA09298008E
:100470008091AA008093970042CF6091760085EF2B
:1004800090E094D261CF6091760088EF90E08ED2B8
:100490005BCF6091760086EF90E088D255CF609177
:1004A000760087EF90E082D24FCF6091760081EFA7
:1004B00090E07CD249CF8091760083BB63B380EF1C
:1004C00090E074D241CFB5BAC0939E00F0929D00E7
:1004D00010929C0010929B0010929A00C09299007A
:1004E00010929800D09397000ACFE5BAC0939B0072
:1004F000D0939A00A0929900A09298000093970040
:10050000FECE15BA00939700FACE8FEF8E0F809330
:10051000A800F0E0EA57FF4F808180939700EFCE6C
:100520005398A398DCCE15BBF09299008091AA0055
:1005300080939800D0929700E2CEE951FF4F099442
:10054000969A02CFC09A00CFC19AFECEC29AFCCE34
:10055000C39AFACEC49AF8CEC59AF6CEC69AF4CE0D
:10056000959AF2CEE051FF4F09949698EDCEC0983F
:10057000EBCEC198E9CEC298E7CEC398E5CEC49839
:10058000E3CEC598E1CEC698DFCE9598DDCE98B380
:1005900088BB82B3806682BB79CE1F920F920FB662
:1005A0000F9211248F939F93EF93FF938BB19CB184
:1005B000847199F4809196008823C1F0813009F408
:1005C0003EC0E82FF0E0EC58FF4F9083909171000F
:1005D000891799F18F5F80939600FF91EF919F911A
:1005E0008F910F900FBE0F901F9018959923A9F32C
:1005F0009093AA00892F807C01F1803C91F1803892
:1006000049F181E085BB8AEA809398009093970036
:100610001092AA0010929600E5B3F0E0E956FF4F61
:1006200080818CB9539A85B3882309F185B38150B1
:1006300085BB559AD2CF90937600A39ACECF809166
:1006400071008130C1F39F5F9093710082E08093CD
:100650009600C3CF81E08093960082E08093710082
:10066000BCCF81E08093960080937100B6CF539801
:10067000B4CF1F920F920FB60F9211248F93EF9366
:10068000FF93E5B3F0E0E956FF4F80818CB9539AB0
:1006900085B3882359F085B3815085BBFF91EF91D5
:1006A0008F910F900FBE0F901F90189555985398EB
:1006B000FF91EF918F910F900FBE0F901F901895A3
:1006C0001F920F920FB60F9211242F933F934F93C7
:1006D0005F936F937F938F939F93AF93BF93CF93CA
:1006E000EF93FF939C9B0AC08091A7008150809359
:1006F000A7008823A9F081B5806481BDFF91EF91A7
:10070000CF91BF91AF919F918F917F916F915F91A9
:100710004F913F912F910F900FBE0F901F90189502
:1007200083EF90E03BD18093A700829B33C086EF9C
:1007300090E034D12091A900821708F457C096B3F5
:10074000991F9927991FB6999F5FB5999F5FB49993
:100750009F5FB3999F5FB2999F5FB1999F5FB09977
:100760009F5F86999F5F85999F5F809175008F70CD
:100770008A3048F18650291780F5873009F46DC01A
:1007800008F046C0853009F466C0863009F044C0E0
:10079000C198B1CF88EF90E001D12091A90028172E
:1007A00070F6809173008150809373008111C7CFE0
:1007B000C1E0C20FC093A90082EF90E0EFD0809318
:1007C00073002C2FBCCF9217B8F590E0FC01319745
:1007D000E930F105A0F0C79A8ECF873009F190F487
:1007E0008530E1F0863091F4C19A85CF8091730015
:1007F0008150809373008111A2CFCFEFDACFE75001
:10080000FF4F0994883071F0893071F0C39A73CF2B
:100810008830F9F08930C1F0C3986DCFC29A6BCFA0
:10082000C09A69CF969A67CF959A65CFC69A63CFDB
:10083000C49A61CFC59A5FCF90E0FC013197E9304F
:10084000F10520F0C79857CF959855CFEE5FFE4F32
:100850000994969850CFC2984ECFC0984CCFC49868
:100860004ACFC59848CFC69846CF1F920F920FB671
:100870000F9211248F939F93EF93FF9380917200B7
:10088000880F809372009091740093FF15C090FFC1
:1008900015C0849915C09F5F90937400983009F437
:1008A00049C094FD11C0FF91EF919F918F910F90DE
:1008B0000FBE0F901F90189590FFEBCF839BEBCF4F
:1008C000816080937200E7CF809375009091A800BB
:1008D0009F3069F0E92FF0E0EA57FF4F80839F5F78
:1008E0009093A8001092720010927400DCCF909147
:1008F000950090939400909393009093920090931E
:1009000091009093900090938F0090938E0090931D
:100910008D0090938C0090938B0090938A0090931D
:10092000890090938800909387009093860080932D
:100930009500D8CF809375009091A8009F3059F012
:10094000E92FF0E0EA57FF4F80839F5F9093A80064
:1009500010927200A8CF909195009093940090937C
:1009600093009093920090939100909390009093B5
:100970008F0090938E0090938D0090938C009093B5
:100980008B0090938A0090938900909388009093B5
:1009900087009093860080939500DACFE199FECF8F
:1009A0001FBA8EBBE09A99278DB30895262FE1993F
:1009B000FECF1FBA8EBBE09A81500DB2021639F0FD
:1009C0001CBA2DBB0FB6F894E29AE19A0FBE0895B7
:1009D000F894FFCFFFFFFFFFFFFFFFFFFFFFFFFFC9
:1009E000FFFFFFFFFFFFFFFFFFFFFFFFFFFFFFFF17
:1009F000FFFFFFFFFFFFFFFFFFFFFFFFFFFFFFFF07
:100A0000FFFFFFFFFFFFFFFFFFFFFFFFFFFFFFFFF6
:100A1000FFFFFFFFFFFFFFFFFFFFFFFFFFFFFFFFE6
:00000001FF
